{
  "_format": "hh-sol-artifact-1",
  "contractName": "CommitReveal",
  "sourceName": "contracts/CommitReveal.sol",
  "abi": [
    {
      "inputs": [],
      "stateMutability": "nonpayable",
      "type": "constructor"
    },
    {
      "inputs": [
        {
          "internalType": "bytes32",
          "name": "_secretVote",
          "type": "bytes32"
        }
      ],
      "name": "commitVote",
      "outputs": [],
      "stateMutability": "nonpayable",
      "type": "function"
    },
    {
      "inputs": [
        {
          "internalType": "string",
          "name": "_foo",
          "type": "string"
        },
        {
          "internalType": "string",
          "name": "_bar",
          "type": "string"
        }
      ],
      "name": "getHash",
      "outputs": [
        {
          "internalType": "bytes32",
          "name": "",
          "type": "bytes32"
        }
      ],
      "stateMutability": "pure",
      "type": "function"
    },
    {
      "inputs": [
        {
          "internalType": "string",
          "name": "_vote",
          "type": "string"
        },
        {
          "internalType": "string",
          "name": "_salt",
          "type": "string"
        }
      ],
      "name": "revealVote",
      "outputs": [],
      "stateMutability": "nonpayable",
      "type": "function"
    },
    {
      "inputs": [
        {
          "internalType": "address",
          "name": "",
          "type": "address"
        }
      ],
      "name": "voteByUser",
      "outputs": [
        {
          "internalType": "bytes32",
          "name": "",
          "type": "bytes32"
        }
      ],
      "stateMutability": "view",
      "type": "function"
    },
    {
      "inputs": [
        {
          "internalType": "string",
          "name": "",
          "type": "string"
        }
      ],
      "name": "voteCounts",
      "outputs": [
        {
          "internalType": "uint256",
          "name": "",
          "type": "uint256"
        }
      ],
      "stateMutability": "view",
      "type": "function"
    }
  ],
  "bytecode": "0x608060405234801561001057600080fd5b5060408051808201909152601f81527f4465706c6f79696e6720436f6d6d697452657665616c20636f6e747261637400602082015261004e90610053565b61011f565b61009a8160405160240161006791906100d1565b60408051601f198184030181529190526020810180516001600160e01b0390811663104c13eb60e21b1790915261009d16565b50565b61009a816100b060201b6102451760201c565b60006a636f6e736f6c652e6c6f679050600080835160208501845afa505050565b600060208083528351808285015260005b818110156100fe578581018301518582016040015282016100e2565b506000604082860101526040601f19601f8301168501019250505092915050565b6104c88061012e6000396000f3fe608060405234801561001057600080fd5b50600436106100675760003560e01c80633e858923116100505780633e858923146100a65780634205717d146100c6578063648b8139146100f157600080fd5b806327cf399a1461006c5780633817e34714610091575b600080fd5b61007f61007a366004610313565b610111565b60405190815260200160405180910390f35b6100a461009f366004610313565b610145565b005b6100a46100b4366004610377565b33600090815260208190526040902055565b61007f6100d4366004610390565b805160208183018101805160018252928201919093012091525481565b61007f6100ff3660046103cd565b60006020819052908152604090205481565b6000828260405160200161012692919061043a565b6040516020818303038152906040528051906020012090505b92915050565b336000908152602081815260409182902054915161016791859185910161043a565b604051602081830303815290604052805190602001201461020e576040517f08c379a000000000000000000000000000000000000000000000000000000000815260206004820152602660248201527f766f746520616e642073616c7420646f206e6f74206d617463682073746f726560448201527f6420686173680000000000000000000000000000000000000000000000000000606482015260840160405180910390fd5b6001808360405161021f919061044f565b9081526020016040518091039020600082825461023c919061045b565b90915550505050565b60006a636f6e736f6c652e6c6f679050600080835160208501845afa505050565b61026e61047c565b565b634e487b7160e01b600052604160045260246000fd5b600082601f83011261029757600080fd5b813567ffffffffffffffff808211156102b2576102b2610270565b604051601f8301601f19908116603f011681019082821181831017156102da576102da610270565b816040528381528660208588010111156102f357600080fd5b836020870160208301376000602085830101528094505050505092915050565b6000806040838503121561032657600080fd5b823567ffffffffffffffff8082111561033e57600080fd5b61034a86838701610286565b9350602085013591508082111561036057600080fd5b5061036d85828601610286565b9150509250929050565b60006020828403121561038957600080fd5b5035919050565b6000602082840312156103a257600080fd5b813567ffffffffffffffff8111156103b957600080fd5b6103c584828501610286565b949350505050565b6000602082840312156103df57600080fd5b813573ffffffffffffffffffffffffffffffffffffffff8116811461040357600080fd5b9392505050565b6000815160005b8181101561042b5760208185018101518683015201610411565b50600093019283525090919050565b60006103c5610449838661040a565b8461040a565b6000610403828461040a565b8082018082111561013f57634e487b7160e01b600052601160045260246000fd5b634e487b7160e01b600052605160045260246000fdfea26469706673582212203822e78402d3ac45c555827ae1f722703e6823e00a1e727c9137a2e5154adf2964736f6c63430008130033",
  "linkReferences": {},
  "deployedLinkReferences": {}
}